{
  "contractName": "DataExchange",
  "abi": [
    {
      "constant": true,
      "inputs": [
        {
          "name": "",
          "type": "address"
        },
        {
          "name": "",
          "type": "uint256"
        }
      ],
      "name": "customer",
      "outputs": [
        {
          "name": "",
          "type": "address"
        }
      ],
      "payable": false,
      "stateMutability": "view",
      "type": "function"
    },
    {
      "constant": true,
      "inputs": [
        {
          "name": "",
          "type": "address"
        }
      ],
      "name": "iot_registation",
      "outputs": [
        {
          "name": "",
          "type": "bool"
        }
      ],
      "payable": false,
      "stateMutability": "view",
      "type": "function"
    },
    {
      "constant": true,
      "inputs": [
        {
          "name": "",
          "type": "uint256"
        }
      ],
      "name": "iot_data_map",
      "outputs": [
        {
          "name": "_hash",
          "type": "uint256"
        },
        {
          "name": "_size",
          "type": "uint32"
        },
        {
          "name": "_type",
          "type": "string"
        },
        {
          "name": "_time",
          "type": "uint32"
        },
        {
          "name": "_price",
          "type": "uint256"
        }
      ],
      "payable": false,
      "stateMutability": "view",
      "type": "function"
    },
    {
      "constant": true,
      "inputs": [],
      "name": "owner",
      "outputs": [
        {
          "name": "",
          "type": "address"
        }
      ],
      "payable": false,
      "stateMutability": "view",
      "type": "function"
    },
    {
      "constant": true,
      "inputs": [
        {
          "name": "",
          "type": "address"
        },
        {
          "name": "",
          "type": "address"
        }
      ],
      "name": "iot_tx",
      "outputs": [
        {
          "name": "data_hash",
          "type": "uint256"
        },
        {
          "name": "buyer_deposit",
          "type": "uint256"
        },
        {
          "name": "buyer_public_key",
          "type": "string"
        },
        {
          "name": "progress",
          "type": "uint8"
        },
        {
          "name": "data_encrypted_child_secret_key",
          "type": "string"
        }
      ],
      "payable": false,
      "stateMutability": "view",
      "type": "function"
    },
    {
      "constant": true,
      "inputs": [
        {
          "name": "",
          "type": "address"
        },
        {
          "name": "",
          "type": "uint256"
        }
      ],
      "name": "iot_data_hash",
      "outputs": [
        {
          "name": "",
          "type": "uint256"
        }
      ],
      "payable": false,
      "stateMutability": "view",
      "type": "function"
    },
    {
      "constant": true,
      "inputs": [
        {
          "name": "",
          "type": "uint256"
        }
      ],
      "name": "iot_list",
      "outputs": [
        {
          "name": "",
          "type": "address"
        }
      ],
      "payable": false,
      "stateMutability": "view",
      "type": "function"
    },
    {
      "inputs": [],
      "payable": false,
      "stateMutability": "nonpayable",
      "type": "constructor"
    },
    {
      "anonymous": false,
      "inputs": [],
      "name": "AddOneIoT",
      "type": "event"
    },
    {
      "constant": false,
      "inputs": [
        {
          "name": "iot",
          "type": "address"
        }
      ],
      "name": "registerIoT",
      "outputs": [
        {
          "name": "",
          "type": "bool"
        }
      ],
      "payable": false,
      "stateMutability": "nonpayable",
      "type": "function"
    },
    {
      "constant": true,
      "inputs": [],
      "name": "getIoTList",
      "outputs": [
        {
          "name": "",
          "type": "address[]"
        }
      ],
      "payable": false,
      "stateMutability": "view",
      "type": "function"
    },
    {
      "constant": false,
      "inputs": [
        {
          "name": "data_hash",
          "type": "uint256"
        },
        {
          "name": "data_size",
          "type": "uint32"
        },
        {
          "name": "data_type",
          "type": "string"
        },
        {
          "name": "data_time",
          "type": "uint32"
        },
        {
          "name": "data_price",
          "type": "uint256"
        }
      ],
      "name": "pushData",
      "outputs": [],
      "payable": false,
      "stateMutability": "nonpayable",
      "type": "function"
    },
    {
      "constant": false,
      "inputs": [
        {
          "name": "iot_address",
          "type": "address"
        },
        {
          "name": "data_hash",
          "type": "uint256"
        },
        {
          "name": "pk",
          "type": "string"
        }
      ],
      "name": "deposit",
      "outputs": [],
      "payable": true,
      "stateMutability": "payable",
      "type": "function"
    },
    {
      "constant": false,
      "inputs": [
        {
          "name": "buyer_address",
          "type": "address"
        },
        {
          "name": "encrypted_csk",
          "type": "string"
        }
      ],
      "name": "deal",
      "outputs": [],
      "payable": false,
      "stateMutability": "nonpayable",
      "type": "function"
    },
    {
      "constant": true,
      "inputs": [
        {
          "name": "iot_address",
          "type": "address"
        }
      ],
      "name": "getCustomerList",
      "outputs": [
        {
          "name": "",
          "type": "address[]"
        }
      ],
      "payable": false,
      "stateMutability": "view",
      "type": "function"
    },
    {
      "constant": true,
      "inputs": [],
      "name": "getContractBalance",
      "outputs": [
        {
          "name": "",
          "type": "uint256"
        }
      ],
      "payable": false,
      "stateMutability": "view",
      "type": "function"
    }
  ],
  "bytecode": "0x608060405234801561001057600080fd5b50336000806101000a81548173ffffffffffffffffffffffffffffffffffffffff021916908373ffffffffffffffffffffffffffffffffffffffff16021790555061194a806100606000396000f3006080604052600436106100d0576000357c0100000000000000000000000000000000000000000000000000000000900463ffffffff1680630aa93fbd146100d55780631345ecf11461016257806323199377146101eb57806343e08102146102465780634e9543d8146102e35780636f9fb98a146103bd578063708a4161146103e85780638da5cb5b146104435780638ef477961461049a5780639b8c8be7146106055780639bb8f3c81461069d578063ab900624146106fe578063bfe07da61461076b578063e7cec3e8146107f1575b600080fd5b3480156100e157600080fd5b50610120600480360381019080803573ffffffffffffffffffffffffffffffffffffffff1690602001909291908035906020019092919050505061085d565b604051808273ffffffffffffffffffffffffffffffffffffffff1673ffffffffffffffffffffffffffffffffffffffff16815260200191505060405180910390f35b34801561016e57600080fd5b506101e9600480360381019080803573ffffffffffffffffffffffffffffffffffffffff169060200190929190803590602001908201803590602001908080601f01602080910402602001604051908101604052809392919081815260200183838082843782019150505050505091929192905050506108aa565b005b3480156101f757600080fd5b5061022c600480360381019080803573ffffffffffffffffffffffffffffffffffffffff169060200190929190505050610b72565b604051808215151515815260200191505060405180910390f35b34801561025257600080fd5b506102e160048036038101908080359060200190929190803563ffffffff169060200190929190803590602001908201803590602001908080601f0160208091040260200160405190810160405280939291908181526020018383808284378201915050505050509192919290803563ffffffff16906020019092919080359060200190929190505050610b92565b005b3480156102ef57600080fd5b5061030e60048036038101908080359060200190929190505050610d8e565b604051808681526020018563ffffffff1663ffffffff168152602001806020018463ffffffff1663ffffffff168152602001838152602001828103825285818151815260200191508051906020019080838360005b8381101561037e578082015181840152602081019050610363565b50505050905090810190601f1680156103ab5780820380516001836020036101000a031916815260200191505b50965050505050505060405180910390f35b3480156103c957600080fd5b506103d2610e7c565b6040518082815260200191505060405180910390f35b3480156103f457600080fd5b50610429600480360381019080803573ffffffffffffffffffffffffffffffffffffffff169060200190929190505050610e9b565b604051808215151515815260200191505060405180910390f35b34801561044f57600080fd5b506104586110b4565b604051808273ffffffffffffffffffffffffffffffffffffffff1673ffffffffffffffffffffffffffffffffffffffff16815260200191505060405180910390f35b3480156104a657600080fd5b506104fb600480360381019080803573ffffffffffffffffffffffffffffffffffffffff169060200190929190803573ffffffffffffffffffffffffffffffffffffffff1690602001909291905050506110d9565b604051808681526020018581526020018060200184600281111561051b57fe5b60ff16815260200180602001838103835286818151815260200191508051906020019080838360005b8381101561055f578082015181840152602081019050610544565b50505050905090810190601f16801561058c5780820380516001836020036101000a031916815260200191505b50838103825284818151815260200191508051906020019080838360005b838110156105c55780820151818401526020810190506105aa565b50505050905090810190601f1680156105f25780820380516001836020036101000a031916815260200191505b5097505050505050505060405180910390f35b34801561061157600080fd5b50610646600480360381019080803573ffffffffffffffffffffffffffffffffffffffff169060200190929190505050611259565b6040518080602001828103825283818151815260200191508051906020019060200280838360005b8381101561068957808201518184015260208101905061066e565b505050509050019250505060405180910390f35b3480156106a957600080fd5b506106e8600480360381019080803573ffffffffffffffffffffffffffffffffffffffff1690602001909291908035906020019092919050505061132b565b6040518082815260200191505060405180910390f35b34801561070a57600080fd5b506107296004803603810190808035906020019092919050505061135b565b604051808273ffffffffffffffffffffffffffffffffffffffff1673ffffffffffffffffffffffffffffffffffffffff16815260200191505060405180910390f35b6107ef600480360381019080803573ffffffffffffffffffffffffffffffffffffffff16906020019092919080359060200190929190803590602001908201803590602001908080601f0160208091040260200160405190810160405280939291908181526020018383808284378201915050505050509192919290505050611399565b005b3480156107fd57600080fd5b5061080661176b565b6040518080602001828103825283818151815260200191508051906020019060200280838360005b8381101561084957808201518184015260208101905061082e565b505050509050019250505060405180910390f35b60036020528160005260406000208181548110151561087857fe5b906000526020600020016000915091509054906101000a900473ffffffffffffffffffffffffffffffffffffffff1681565b600033600160008273ffffffffffffffffffffffffffffffffffffffff1673ffffffffffffffffffffffffffffffffffffffff16815260200190815260200160002060009054906101000a900460ff16151561096e576040517f08c379a000000000000000000000000000000000000000000000000000000000815260040180806020018281038252600f8152602001807f4f6e6c7920496f5420646576696365000000000000000000000000000000000081525060200191505060405180910390fd5b600260003373ffffffffffffffffffffffffffffffffffffffff1673ffffffffffffffffffffffffffffffffffffffff16815260200190815260200160002060008573ffffffffffffffffffffffffffffffffffffffff1673ffffffffffffffffffffffffffffffffffffffff16815260200190815260200160002060010154915082600260003373ffffffffffffffffffffffffffffffffffffffff1673ffffffffffffffffffffffffffffffffffffffff16815260200190815260200160002060008673ffffffffffffffffffffffffffffffffffffffff1673ffffffffffffffffffffffffffffffffffffffff1681526020019081526020016000206004019080519060200190610a839291906117f9565b506001600260003373ffffffffffffffffffffffffffffffffffffffff1673ffffffffffffffffffffffffffffffffffffffff16815260200190815260200160002060008673ffffffffffffffffffffffffffffffffffffffff1673ffffffffffffffffffffffffffffffffffffffff16815260200190815260200160002060030160006101000a81548160ff02191690836002811115610b2057fe5b02179055503373ffffffffffffffffffffffffffffffffffffffff166108fc839081150290604051600060405180830381858888f19350505050158015610b6b573d6000803e3d6000fd5b5050505050565b60016020528060005260406000206000915054906101000a900460ff1681565b33600160008273ffffffffffffffffffffffffffffffffffffffff1673ffffffffffffffffffffffffffffffffffffffff16815260200190815260200160002060009054906101000a900460ff161515610c54576040517f08c379a000000000000000000000000000000000000000000000000000000000815260040180806020018281038252600f8152602001807f4f6e6c7920496f5420646576696365000000000000000000000000000000000081525060200191505060405180910390fd5b600460003373ffffffffffffffffffffffffffffffffffffffff1673ffffffffffffffffffffffffffffffffffffffff16815260200190815260200160002086908060018154018082558091505090600182039060005260206000200160009091929091909150555060a0604051908101604052808781526020018663ffffffff1681526020018581526020018463ffffffff16815260200183815250600560008881526020019081526020016000206000820151816000015560208201518160010160006101000a81548163ffffffff021916908363ffffffff1602179055506040820151816002019080519060200190610d51929190611879565b5060608201518160030160006101000a81548163ffffffff021916908363ffffffff16021790555060808201518160040155905050505050505050565b60056020528060005260406000206000915090508060000154908060010160009054906101000a900463ffffffff1690806002018054600181600116156101000203166002900480601f016020809104026020016040519081016040528092919081815260200182805460018160011615610100020316600290048015610e565780601f10610e2b57610100808354040283529160200191610e56565b820191906000526020600020905b815481529060010190602001808311610e3957829003601f168201915b5050505050908060030160009054906101000a900463ffffffff16908060040154905085565b60003073ffffffffffffffffffffffffffffffffffffffff1631905090565b6000806000809054906101000a900473ffffffffffffffffffffffffffffffffffffffff1673ffffffffffffffffffffffffffffffffffffffff163373ffffffffffffffffffffffffffffffffffffffff16141515610f62576040517f08c379a00000000000000000000000000000000000000000000000000000000081526004018080602001828103825260188152602001807f4f6e6c79206f776e65722063616e2063616c6c2074686973000000000000000081525060200191505060405180910390fd5b600160008473ffffffffffffffffffffffffffffffffffffffff1673ffffffffffffffffffffffffffffffffffffffff16815260200190815260200160002060009054906101000a900460ff1615610fbd576000905061107f565b60018060008573ffffffffffffffffffffffffffffffffffffffff1673ffffffffffffffffffffffffffffffffffffffff16815260200190815260200160002060006101000a81548160ff02191690831515021790555060068390806001815401808255809150509060018203906000526020600020016000909192909190916101000a81548173ffffffffffffffffffffffffffffffffffffffff021916908373ffffffffffffffffffffffffffffffffffffffff16021790555050600190505b7fd90f4ed59eb452f15aed71fa01c3392c74fd8bdd5e78493e53c48dab913a6f8460405160405180910390a180915050919050565b6000809054906101000a900473ffffffffffffffffffffffffffffffffffffffff1681565b600260205281600052604060002060205280600052604060002060009150915050806000015490806001015490806002018054600181600116156101000203166002900480601f01602080910402602001604051908101604052809291908181526020018280546001816001161561010002031660029004801561119e5780601f106111735761010080835404028352916020019161119e565b820191906000526020600020905b81548152906001019060200180831161118157829003601f168201915b5050505050908060030160009054906101000a900460ff1690806004018054600181600116156101000203166002900480601f01602080910402602001604051908101604052809291908181526020018280546001816001161561010002031660029004801561124f5780601f106112245761010080835404028352916020019161124f565b820191906000526020600020905b81548152906001019060200180831161123257829003601f168201915b5050505050905085565b606080600360008473ffffffffffffffffffffffffffffffffffffffff1673ffffffffffffffffffffffffffffffffffffffff16815260200190815260200160002080548060200260200160405190810160405280929190818152602001828054801561131b57602002820191906000526020600020905b8160009054906101000a900473ffffffffffffffffffffffffffffffffffffffff1673ffffffffffffffffffffffffffffffffffffffff16815260200190600101908083116112d1575b5050505050905080915050919050565b60046020528160005260406000208181548110151561134657fe5b90600052602060002001600091509150505481565b60068181548110151561136a57fe5b906000526020600020016000915054906101000a900473ffffffffffffffffffffffffffffffffffffffff1681565b82600160008273ffffffffffffffffffffffffffffffffffffffff1673ffffffffffffffffffffffffffffffffffffffff16815260200190815260200160002060009054906101000a900460ff16151561145b576040517f08c379a000000000000000000000000000000000000000000000000000000000815260040180806020018281038252600f8152602001807f4f6e6c7920496f5420646576696365000000000000000000000000000000000081525060200191505060405180910390fd5b346000811115156114d4576040517f08c379a000000000000000000000000000000000000000000000000000000000815260040180806020018281038252601e8152602001807f76616c75652073686f756c64206265206d6f7265207468616e207a65726f000081525060200191505060405180910390fd5b346005600086815260200190815260200160002060040154141515611587576040517f08c379a00000000000000000000000000000000000000000000000000000000081526004018080602001828103825260298152602001807f6465706f7369742073686f756c6420626520657175616c20746f20737570706f81526020017f736564207072696365000000000000000000000000000000000000000000000081525060400191505060405180910390fd5b60a060405190810160405280858152602001348152602001848152602001600060028111156115b257fe5b81526020016020604051908101604052806000815250815250600260008773ffffffffffffffffffffffffffffffffffffffff1673ffffffffffffffffffffffffffffffffffffffff16815260200190815260200160002060003373ffffffffffffffffffffffffffffffffffffffff1673ffffffffffffffffffffffffffffffffffffffff16815260200190815260200160002060008201518160000155602082015181600101556040820151816002019080519060200190611677929190611879565b5060608201518160030160006101000a81548160ff0219169083600281111561169c57fe5b021790555060808201518160040190805190602001906116bd929190611879565b50905050600360008673ffffffffffffffffffffffffffffffffffffffff1673ffffffffffffffffffffffffffffffffffffffff1681526020019081526020016000203390806001815401808255809150509060018203906000526020600020016000909192909190916101000a81548173ffffffffffffffffffffffffffffffffffffffff021916908373ffffffffffffffffffffffffffffffffffffffff160217905550505050505050565b606060068054806020026020016040519081016040528092919081815260200182805480156117ef57602002820191906000526020600020905b8160009054906101000a900473ffffffffffffffffffffffffffffffffffffffff1673ffffffffffffffffffffffffffffffffffffffff16815260200190600101908083116117a5575b5050505050905090565b828054600181600116156101000203166002900490600052602060002090601f016020900481019282601f1061183a57805160ff1916838001178555611868565b82800160010185558215611868579182015b8281111561186757825182559160200191906001019061184c565b5b50905061187591906118f9565b5090565b828054600181600116156101000203166002900490600052602060002090601f016020900481019282601f106118ba57805160ff19168380011785556118e8565b828001600101855582156118e8579182015b828111156118e75782518255916020019190600101906118cc565b5b5090506118f591906118f9565b5090565b61191b91905b808211156119175760008160009055506001016118ff565b5090565b905600a165627a7a7230582076362ba0d54d0fab003fe7729c27b08e663e67ddf4e7bdfb81277b74dfaf6a960029",
  "source": "// pragma solidity ^0.4.24;\r\npragma solidity <=0.5.1;\r\n\r\ncontract DataExchange {\r\n    address public owner;\r\n\r\n    // mapping(address => mapping(address => uint256)) tx;\r\n    mapping(address => bool) public iot_registation;\r\n    mapping(address => mapping(address => DEPOSIT)) public iot_tx;\r\n    mapping(address => address[]) public customer;\r\n    mapping(address => uint256[]) public iot_data_hash;\r\n    mapping(uint256 => IOT_DATA) public iot_data_map;\r\n\r\n    address[] public iot_list;\r\n\r\n    enum State { Deposited, Accepted, Rejected }\r\n\r\n    struct IOT_DATA {\r\n        uint256 _hash;\r\n        uint32  _size;\r\n        string  _type;\r\n        uint32  _time;\r\n        uint256 _price;\r\n    }\r\n\r\n    struct DEPOSIT {\r\n        uint256 data_hash;\r\n        uint256 buyer_deposit;\r\n        string  buyer_public_key;\r\n        State   progress;\r\n        string  data_encrypted_child_secret_key;\r\n    }\r\n\r\n    /* constructor */\r\n    constructor () public {\r\n        owner = msg.sender;\r\n    }\r\n\r\n    /* event */\r\n\r\n    event AddOneIoT();\r\n\r\n    /* library */\r\n    modifier onlyOwner () {\r\n        require(\r\n            msg.sender == owner,\r\n            \"Only owner can call this\"\r\n        );\r\n        _;\r\n    }\r\n\r\n    modifier beIoT (address addr) {\r\n        require(\r\n            iot_registation[addr],\r\n            \"Only IoT device\"\r\n        );\r\n        _;\r\n    }\r\n\r\n    modifier notZero (uint256 v) {\r\n        require(\r\n            v > 0,\r\n            \"value should be more than zero\"\r\n        );\r\n        _;\r\n    }\r\n\r\n    /* Admin */\r\n    function registerIoT(address iot)\r\n        public\r\n        onlyOwner ()\r\n        returns(bool)\r\n    {\r\n        bool ret;\r\n        if (iot_registation[iot]) {\r\n            ret = false;\r\n        } else {\r\n            iot_registation[iot] = true;\r\n            iot_list.push(iot);\r\n            ret = true;\r\n        }\r\n        emit AddOneIoT();\r\n        return ret;\r\n    }\r\n\r\n    function getIoTList()\r\n        public\r\n        view\r\n        returns(address[])\r\n    {\r\n        return iot_list;\r\n    }\r\n\r\n    /* IoT */\r\n    function pushData(\r\n        uint256 data_hash,\r\n        uint32 data_size,\r\n        string memory data_type,\r\n        uint32 data_time,\r\n        uint256 data_price\r\n        )\r\n        public\r\n        beIoT (msg.sender)\r\n    {\r\n\r\n        iot_data_hash[msg.sender].push(data_hash);\r\n\r\n        iot_data_map[data_hash]=\r\n            IOT_DATA(\r\n                {\r\n                    _hash:  data_hash,\r\n                    _size:  data_size,\r\n                    _type:  data_type,\r\n                    _time:  data_time,\r\n                    _price: data_price\r\n                }\r\n            );\r\n\r\n    }\r\n\r\n    /* Exchange */\r\n    function deposit (\r\n        address iot_address,\r\n        uint256 data_hash,\r\n        string memory pk\r\n        )\r\n        public\r\n        payable\r\n        beIoT (iot_address)\r\n        notZero (msg.value)\r\n    {\r\n        require(\r\n            iot_data_map[data_hash]._price == msg.value, \r\n            \"deposit should be equal to supposed price\"\r\n        );\r\n\r\n        iot_tx[iot_address][msg.sender] = DEPOSIT({\r\n                data_hash:data_hash,\r\n                buyer_deposit: msg.value,\r\n                buyer_public_key: pk,\r\n                data_encrypted_child_secret_key: '',\r\n                progress:   State.Deposited\r\n            });\r\n        customer[iot_address].push(msg.sender);\r\n    }\r\n    \r\n    function deal (\r\n        address buyer_address, \r\n        string memory encrypted_csk\r\n        )\r\n        public\r\n        beIoT (msg.sender)\r\n    {\r\n        uint amount = iot_tx[msg.sender][buyer_address].buyer_deposit;\r\n        iot_tx[msg.sender][buyer_address].data_encrypted_child_secret_key = encrypted_csk;\r\n        iot_tx[msg.sender][buyer_address].progress = State.Accepted;\r\n        \r\n        msg.sender.transfer(amount); // works in javascript VM\r\n    }\r\n\r\n    /* Utility */\r\n    // function getBalance (address iot_address)\r\n    //     public\r\n    //     view\r\n    //     returns(uint)\r\n    // {\r\n    //     return iot_tx[iot_address];\r\n    // }\r\n    \r\n    function getCustomerList (address iot_address)\r\n        public\r\n        view\r\n        returns(address[] memory)\r\n    {\r\n        address[] memory c = customer[iot_address];\r\n        return c;\r\n    }\r\n\r\n    function getContractBalance ()\r\n        public\r\n        view\r\n        returns(uint256)\r\n    {\r\n        return address(this).balance;\r\n    }\r\n}\r\n",
  "sourcePath": "G:\\Git\\IoT\\dataExchange\\contracts\\DataExchange.sol",
  "compiler": {
    "name": "solc",
    "version": "0.4.24+commit.e67f0147.Emscripten.clang"
  },
  "schemaVersion": "2.0.1",
  "updatedAt": "2018-12-26T16:59:41.418Z"
}