{
  "contractName": "Trans",
  "abi": [
    {
      "constant": false,
      "inputs": [],
      "name": "renounceOwnership",
      "outputs": [],
      "payable": false,
      "stateMutability": "nonpayable",
      "type": "function"
    },
    {
      "constant": true,
      "inputs": [],
      "name": "owner",
      "outputs": [
        {
          "name": "",
          "type": "address"
        }
      ],
      "payable": false,
      "stateMutability": "view",
      "type": "function"
    },
    {
      "constant": true,
      "inputs": [],
      "name": "isOwner",
      "outputs": [
        {
          "name": "",
          "type": "bool"
        }
      ],
      "payable": false,
      "stateMutability": "view",
      "type": "function"
    },
    {
      "constant": false,
      "inputs": [
        {
          "name": "newOwner",
          "type": "address"
        }
      ],
      "name": "transferOwnership",
      "outputs": [],
      "payable": false,
      "stateMutability": "nonpayable",
      "type": "function"
    },
    {
      "inputs": [],
      "payable": false,
      "stateMutability": "nonpayable",
      "type": "constructor"
    },
    {
      "anonymous": false,
      "inputs": [
        {
          "indexed": true,
          "name": "previousOwner",
          "type": "address"
        },
        {
          "indexed": true,
          "name": "newOwner",
          "type": "address"
        }
      ],
      "name": "OwnershipTransferred",
      "type": "event"
    },
    {
      "constant": false,
      "inputs": [
        {
          "name": "addr",
          "type": "address"
        },
        {
          "name": "info",
          "type": "string"
        }
      ],
      "name": "registerIoT",
      "outputs": [],
      "payable": false,
      "stateMutability": "nonpayable",
      "type": "function"
    },
    {
      "constant": false,
      "inputs": [
        {
          "name": "addr",
          "type": "address"
        }
      ],
      "name": "unregisterIoT",
      "outputs": [],
      "payable": false,
      "stateMutability": "nonpayable",
      "type": "function"
    },
    {
      "constant": true,
      "inputs": [
        {
          "name": "index",
          "type": "uint256"
        }
      ],
      "name": "readIoT",
      "outputs": [
        {
          "name": "",
          "type": "string"
        }
      ],
      "payable": false,
      "stateMutability": "view",
      "type": "function"
    },
    {
      "constant": false,
      "inputs": [
        {
          "name": "h",
          "type": "uint256"
        },
        {
          "name": "uid",
          "type": "uint256"
        },
        {
          "name": "timeStamp",
          "type": "uint256"
        },
        {
          "name": "dataSize",
          "type": "uint256"
        },
        {
          "name": "supposedPrice",
          "type": "uint256"
        },
        {
          "name": "dataType",
          "type": "string"
        }
      ],
      "name": "newData",
      "outputs": [],
      "payable": false,
      "stateMutability": "nonpayable",
      "type": "function"
    },
    {
      "constant": true,
      "inputs": [
        {
          "name": "addr",
          "type": "address"
        }
      ],
      "name": "searchData",
      "outputs": [
        {
          "name": "",
          "type": "uint256[]"
        },
        {
          "name": "",
          "type": "uint256[]"
        },
        {
          "name": "",
          "type": "uint256[]"
        }
      ],
      "payable": false,
      "stateMutability": "view",
      "type": "function"
    }
  ],
  "bytecode": "0x608060405234801561001057600080fd5b50336000806101000a81548173ffffffffffffffffffffffffffffffffffffffff021916908373ffffffffffffffffffffffffffffffffffffffff1602179055506000809054906101000a900473ffffffffffffffffffffffffffffffffffffffff1673ffffffffffffffffffffffffffffffffffffffff16600073ffffffffffffffffffffffffffffffffffffffff167f8be0079c531659141344cd1fd0a4f28419497f9722a3daafe3b4186f6b6457e060405160405180910390a333600560006101000a81548173ffffffffffffffffffffffffffffffffffffffff021916908373ffffffffffffffffffffffffffffffffffffffff1602179055506111f38061011d6000396000f300608060405260043610610099576000357c0100000000000000000000000000000000000000000000000000000000900463ffffffff168063467ffc951461009e5780634abc3178146101c6578063562e683914610209578063715018a6146102925780637dc9d550146102a95780638da5cb5b146103445780638f32d59b1461039b578063b24c4c72146103ca578063f2fde38b14610470575b600080fd5b3480156100aa57600080fd5b506100df600480360381019080803573ffffffffffffffffffffffffffffffffffffffff1690602001909291905050506104b3565b60405180806020018060200180602001848103845287818151815260200191508051906020019060200280838360005b8381101561012a57808201518184015260208101905061010f565b50505050905001848103835286818151815260200191508051906020019060200280838360005b8381101561016c578082015181840152602081019050610151565b50505050905001848103825285818151815260200191508051906020019060200280838360005b838110156101ae578082015181840152602081019050610193565b50505050905001965050505050505060405180910390f35b3480156101d257600080fd5b50610207600480360381019080803573ffffffffffffffffffffffffffffffffffffffff1690602001909291905050506107bc565b005b34801561021557600080fd5b50610290600480360381019080803573ffffffffffffffffffffffffffffffffffffffff169060200190929190803590602001908201803590602001908080601f016020809104026020016040519081016040528093929190818152602001838380828437820191505050505050919291929050505061085c565b005b34801561029e57600080fd5b506102a7610a11565b005b3480156102b557600080fd5b506103426004803603810190808035906020019092919080359060200190929190803590602001909291908035906020019092919080359060200190929190803590602001908201803590602001908080601f0160208091040260200160405190810160405280939291908181526020018383808284378201915050505050509192919290505050610ae3565b005b34801561035057600080fd5b50610359610c54565b604051808273ffffffffffffffffffffffffffffffffffffffff1673ffffffffffffffffffffffffffffffffffffffff16815260200191505060405180910390f35b3480156103a757600080fd5b506103b0610c7d565b604051808215151515815260200191505060405180910390f35b3480156103d657600080fd5b506103f560048036038101908080359060200190929190505050610cd4565b6040518080602001828103825283818151815260200191508051906020019080838360005b8381101561043557808201518184015260208101905061041a565b50505050905090810190601f1680156104625780820380516001836020036101000a031916815260200191505b509250505060405180910390f35b34801561047c57600080fd5b506104b1600480360381019080803573ffffffffffffffffffffffffffffffffffffffff169060200190929190505050610d96565b005b6060806060600080600080600090505b600160008973ffffffffffffffffffffffffffffffffffffffff1673ffffffffffffffffffffffffffffffffffffffff168152602001908152602001600020805490508110156106b25783600160008a73ffffffffffffffffffffffffffffffffffffffff1673ffffffffffffffffffffffffffffffffffffffff1681526020019081526020016000208281548110151561055a57fe5b906000526020600020906006020160020154908060018154018082558091505090600182039060005260206000200160009091929091909150555082600160008a73ffffffffffffffffffffffffffffffffffffffff1673ffffffffffffffffffffffffffffffffffffffff168152602001908152602001600020828154811015156105e257fe5b906000526020600020906006020160030154908060018154018082558091505090600182039060005260206000200160009091929091909150555081600160008a73ffffffffffffffffffffffffffffffffffffffff1673ffffffffffffffffffffffffffffffffffffffff1681526020019081526020016000208281548110151561066a57fe5b906000526020600020906006020160040154908060018154018082558091505090600182039060005260206000200160009091929091909150555080806001019150506104c3565b8383838280548060200260200160405190810160405280929190818152602001828054801561070057602002820191906000526020600020905b8154815260200190600101908083116106ec575b505050505092508180548060200260200160405190810160405280929190818152602001828054801561075257602002820191906000526020600020905b81548152602001906001019080831161073e575b50505050509150808054806020026020016040519081016040528092919081815260200182805480156107a457602002820191906000526020600020905b815481526020019060010190808311610790575b50505050509050965096509650505050509193909250565b6107c4610c7d565b15156107cf57600080fd5b6107da600482610db5565b151561084e576040517f08c379a00000000000000000000000000000000000000000000000000000000081526004018080602001828103825260188152602001807f496f542044657669636520446f65736e2774204578697374000000000000000081525060200191505060405180910390fd5b610859600482610e49565b50565b610864610c7d565b151561086f57600080fd5b61087a600483610db5565b1515156108ef576040517f08c379a00000000000000000000000000000000000000000000000000000000081526004018080602001828103825260198152602001807f496f542044657669636520416c7265616479204578697374730000000000000081525060200191505060405180910390fd5b6108fa600483610ef8565b600360408051908101604052808473ffffffffffffffffffffffffffffffffffffffff168152602001838152509080600181540180825580915050906001820390600052602060002090600202016000909192909190915060008201518160000160006101000a81548173ffffffffffffffffffffffffffffffffffffffff021916908373ffffffffffffffffffffffffffffffffffffffff16021790555060208201518160010190805190602001906109b59291906110a2565b5050505080600260008473ffffffffffffffffffffffffffffffffffffffff1673ffffffffffffffffffffffffffffffffffffffff1681526020019081526020016000209080519060200190610a0c929190611122565b505050565b610a19610c7d565b1515610a2457600080fd5b600073ffffffffffffffffffffffffffffffffffffffff166000809054906101000a900473ffffffffffffffffffffffffffffffffffffffff1673ffffffffffffffffffffffffffffffffffffffff167f8be0079c531659141344cd1fd0a4f28419497f9722a3daafe3b4186f6b6457e060405160405180910390a360008060006101000a81548173ffffffffffffffffffffffffffffffffffffffff021916908373ffffffffffffffffffffffffffffffffffffffff160217905550565b610aee600433610db5565b1515610b62576040517f08c379a00000000000000000000000000000000000000000000000000000000081526004018080602001828103825260138152602001807f496f542044657669636520537570706f7365640000000000000000000000000081525060200191505060405180910390fd5b600160003373ffffffffffffffffffffffffffffffffffffffff1673ffffffffffffffffffffffffffffffffffffffff16815260200190815260200160002060c0604051908101604052808881526020018781526020018681526020018581526020018481526020018381525090806001815401808255809150509060018203906000526020600020906006020160009091929091909150600082015181600001556020820151816001015560408201518160020155606082015181600301556080820151816004015560a0820151816005019080519060200190610c489291906110a2565b50505050505050505050565b60008060009054906101000a900473ffffffffffffffffffffffffffffffffffffffff16905090565b60008060009054906101000a900473ffffffffffffffffffffffffffffffffffffffff1673ffffffffffffffffffffffffffffffffffffffff163373ffffffffffffffffffffffffffffffffffffffff1614905090565b6060600382815481101515610ce557fe5b90600052602060002090600202016001018054600181600116156101000203166002900480601f016020809104026020016040519081016040528092919081815260200182805460018160011615610100020316600290048015610d8a5780601f10610d5f57610100808354040283529160200191610d8a565b820191906000526020600020905b815481529060010190602001808311610d6d57829003601f168201915b50505050509050919050565b610d9e610c7d565b1515610da957600080fd5b610db281610fa8565b50565b60008073ffffffffffffffffffffffffffffffffffffffff168273ffffffffffffffffffffffffffffffffffffffff1614151515610df257600080fd5b8260000160008373ffffffffffffffffffffffffffffffffffffffff1673ffffffffffffffffffffffffffffffffffffffff16815260200190815260200160002060009054906101000a900460ff16905092915050565b600073ffffffffffffffffffffffffffffffffffffffff168173ffffffffffffffffffffffffffffffffffffffff1614151515610e8557600080fd5b610e8f8282610db5565b1515610e9a57600080fd5b60008260000160008373ffffffffffffffffffffffffffffffffffffffff1673ffffffffffffffffffffffffffffffffffffffff16815260200190815260200160002060006101000a81548160ff0219169083151502179055505050565b600073ffffffffffffffffffffffffffffffffffffffff168173ffffffffffffffffffffffffffffffffffffffff1614151515610f3457600080fd5b610f3e8282610db5565b151515610f4a57600080fd5b60018260000160008373ffffffffffffffffffffffffffffffffffffffff1673ffffffffffffffffffffffffffffffffffffffff16815260200190815260200160002060006101000a81548160ff0219169083151502179055505050565b600073ffffffffffffffffffffffffffffffffffffffff168173ffffffffffffffffffffffffffffffffffffffff1614151515610fe457600080fd5b8073ffffffffffffffffffffffffffffffffffffffff166000809054906101000a900473ffffffffffffffffffffffffffffffffffffffff1673ffffffffffffffffffffffffffffffffffffffff167f8be0079c531659141344cd1fd0a4f28419497f9722a3daafe3b4186f6b6457e060405160405180910390a3806000806101000a81548173ffffffffffffffffffffffffffffffffffffffff021916908373ffffffffffffffffffffffffffffffffffffffff16021790555050565b828054600181600116156101000203166002900490600052602060002090601f016020900481019282601f106110e357805160ff1916838001178555611111565b82800160010185558215611111579182015b828111156111105782518255916020019190600101906110f5565b5b50905061111e91906111a2565b5090565b828054600181600116156101000203166002900490600052602060002090601f016020900481019282601f1061116357805160ff1916838001178555611191565b82800160010185558215611191579182015b82811115611190578251825591602001919060010190611175565b5b50905061119e91906111a2565b5090565b6111c491905b808211156111c05760008160009055506001016111a8565b5090565b905600a165627a7a723058205a678d67cbcdb29396c0dc22d6896ca796f9e48fbb4603e357afa60d785d965c0029",
  "source": "pragma solidity ^0.4.18;\n\nimport \"openzeppelin-solidity/contracts/ownership/Ownable.sol\";\nimport \"openzeppelin-solidity/contracts/access/Roles.sol\";\n\ncontract Trans is Ownable {\n\n    struct D {\n        uint256 h;\n        uint256 uid;\n        uint256 timeStamp;\n        uint256 dataSize;\n        uint256 supposedPrice;\n        string  dataType;\n    }\n    struct IoT {\n        address a;\n        string info;\n    }\n    mapping(address => D[]) DB;\n    mapping(address => string) IoTInfo;\n    IoT[]  IoTList;\n\n    Roles.Role IoTDevice;\n    address creator;  // the boss\n\n    constructor () public {\n        creator = msg.sender;\n    }\n\n    // registerIoT\n    // the creator use this\n    // to add IoT device's address \n    // in the smart contract\n    function registerIoT(address addr, string info)\n        public\n        onlyOwner\n    {\n        require(!Roles.has(IoTDevice, addr), \"IoT Device Already Exists\");\n\n        Roles.add(IoTDevice, addr);\n        IoTList.push(\n            IoT(\n                {\n                    a:addr, info:info\n                }\n            )\n        );\n        IoTInfo[addr] = info;\n    }\n\n    // unregisterIoT\n    // same as register IoT\n    function unregisterIoT(address addr)\n        public\n        onlyOwner\n    {\n        require(Roles.has(IoTDevice, addr), \"IoT Device Doesn't Exist\");\n\n        Roles.remove(IoTDevice, addr);\n    }\n\n    function readIoT(uint index)\n        public\n        view\n        returns(string)\n    {\n        return IoTList[index].info;\n    }\n\n    // IoT device push new data\n    function newData(\n        uint256 h,\n        uint256 uid,\n        uint256 timeStamp,\n        uint256 dataSize,\n        uint256 supposedPrice,\n        string  dataType\n        )\n        public\n    {   \n        require(Roles.has(IoTDevice, msg.sender), \"IoT Device Supposed\");\n        DB[msg.sender].push(\n            D(\n                {\n                    h:h,\n                    uid:uid,\n                    timeStamp:timeStamp,\n                    dataSize:dataSize,\n                    supposedPrice:supposedPrice,\n                    dataType: dataType\n                }\n            )\n        );\n    }\n\n    // search data\n    function searchData(address addr)\n        public\n        view\n        returns(uint256[],uint256[],uint256[])\n    {\n        uint256[] ts;\n        uint256[] dsize;\n        uint256[] price;\n        // string[] datatype;\n\n        for (uint i = 0; i < DB[addr].length; i++) {\n            ts.push(DB[addr][i].timeStamp);\n            dsize.push(DB[addr][i].dataSize);\n            price.push(DB[addr][i].supposedPrice);\n            // datatype.push(DB[addr][i].dataType);\n        }\n\n        return(ts, dsize, price);\n    }\n}",
  "sourcePath": "G:\\Git\\IoT\\transfer\\contracts\\Trans.sol",
  "compiler": {
    "name": "solc",
    "version": "0.4.24+commit.e67f0147.Emscripten.clang"
  },
  "schemaVersion": "2.0.1",
  "updatedAt": "2018-11-29T13:54:05.100Z"
}